{
  "contractName": "EspToken",
  "abi": [
    {
      "inputs": [
        {
          "internalType": "uint256",
          "name": "_initialSupply",
          "type": "uint256"
        },
        {
          "internalType": "uint256",
          "name": "_finalSupply",
          "type": "uint256"
        }
      ],
      "stateMutability": "nonpayable",
      "type": "constructor"
    },
    {
      "anonymous": false,
      "inputs": [
        {
          "indexed": true,
          "internalType": "address",
          "name": "owner",
          "type": "address"
        },
        {
          "indexed": true,
          "internalType": "address",
          "name": "spender",
          "type": "address"
        },
        {
          "indexed": false,
          "internalType": "uint256",
          "name": "value",
          "type": "uint256"
        }
      ],
      "name": "Approval",
      "type": "event"
    },
    {
      "anonymous": false,
      "inputs": [
        {
          "indexed": true,
          "internalType": "address",
          "name": "previousOwner",
          "type": "address"
        },
        {
          "indexed": true,
          "internalType": "address",
          "name": "newOwner",
          "type": "address"
        }
      ],
      "name": "OwnershipTransferred",
      "type": "event"
    },
    {
      "anonymous": false,
      "inputs": [
        {
          "indexed": true,
          "internalType": "address",
          "name": "from",
          "type": "address"
        },
        {
          "indexed": true,
          "internalType": "address",
          "name": "to",
          "type": "address"
        },
        {
          "indexed": false,
          "internalType": "uint256",
          "name": "value",
          "type": "uint256"
        }
      ],
      "name": "Transfer",
      "type": "event"
    },
    {
      "inputs": [
        {
          "internalType": "address",
          "name": "owner",
          "type": "address"
        },
        {
          "internalType": "address",
          "name": "spender",
          "type": "address"
        }
      ],
      "name": "allowance",
      "outputs": [
        {
          "internalType": "uint256",
          "name": "",
          "type": "uint256"
        }
      ],
      "stateMutability": "view",
      "type": "function",
      "constant": true
    },
    {
      "inputs": [
        {
          "internalType": "address",
          "name": "spender",
          "type": "address"
        },
        {
          "internalType": "uint256",
          "name": "amount",
          "type": "uint256"
        }
      ],
      "name": "approve",
      "outputs": [
        {
          "internalType": "bool",
          "name": "",
          "type": "bool"
        }
      ],
      "stateMutability": "nonpayable",
      "type": "function"
    },
    {
      "inputs": [
        {
          "internalType": "address",
          "name": "account",
          "type": "address"
        }
      ],
      "name": "balanceOf",
      "outputs": [
        {
          "internalType": "uint256",
          "name": "",
          "type": "uint256"
        }
      ],
      "stateMutability": "view",
      "type": "function",
      "constant": true
    },
    {
      "inputs": [],
      "name": "decimals",
      "outputs": [
        {
          "internalType": "uint8",
          "name": "",
          "type": "uint8"
        }
      ],
      "stateMutability": "view",
      "type": "function",
      "constant": true
    },
    {
      "inputs": [
        {
          "internalType": "address",
          "name": "spender",
          "type": "address"
        },
        {
          "internalType": "uint256",
          "name": "subtractedValue",
          "type": "uint256"
        }
      ],
      "name": "decreaseAllowance",
      "outputs": [
        {
          "internalType": "bool",
          "name": "",
          "type": "bool"
        }
      ],
      "stateMutability": "nonpayable",
      "type": "function"
    },
    {
      "inputs": [
        {
          "internalType": "address",
          "name": "spender",
          "type": "address"
        },
        {
          "internalType": "uint256",
          "name": "addedValue",
          "type": "uint256"
        }
      ],
      "name": "increaseAllowance",
      "outputs": [
        {
          "internalType": "bool",
          "name": "",
          "type": "bool"
        }
      ],
      "stateMutability": "nonpayable",
      "type": "function"
    },
    {
      "inputs": [],
      "name": "name",
      "outputs": [
        {
          "internalType": "string",
          "name": "",
          "type": "string"
        }
      ],
      "stateMutability": "view",
      "type": "function",
      "constant": true
    },
    {
      "inputs": [],
      "name": "owner",
      "outputs": [
        {
          "internalType": "address",
          "name": "",
          "type": "address"
        }
      ],
      "stateMutability": "view",
      "type": "function",
      "constant": true
    },
    {
      "inputs": [],
      "name": "renounceOwnership",
      "outputs": [],
      "stateMutability": "nonpayable",
      "type": "function"
    },
    {
      "inputs": [],
      "name": "symbol",
      "outputs": [
        {
          "internalType": "string",
          "name": "",
          "type": "string"
        }
      ],
      "stateMutability": "view",
      "type": "function",
      "constant": true
    },
    {
      "inputs": [],
      "name": "totalSupply",
      "outputs": [
        {
          "internalType": "uint256",
          "name": "",
          "type": "uint256"
        }
      ],
      "stateMutability": "view",
      "type": "function",
      "constant": true
    },
    {
      "inputs": [
        {
          "internalType": "address",
          "name": "newOwner",
          "type": "address"
        }
      ],
      "name": "transferOwnership",
      "outputs": [],
      "stateMutability": "nonpayable",
      "type": "function"
    },
    {
      "inputs": [
        {
          "internalType": "address",
          "name": "recipient",
          "type": "address"
        },
        {
          "internalType": "uint256",
          "name": "amount",
          "type": "uint256"
        }
      ],
      "name": "transfer",
      "outputs": [
        {
          "internalType": "bool",
          "name": "",
          "type": "bool"
        }
      ],
      "stateMutability": "nonpayable",
      "type": "function"
    },
    {
      "inputs": [
        {
          "internalType": "address",
          "name": "sender",
          "type": "address"
        },
        {
          "internalType": "address",
          "name": "recipient",
          "type": "address"
        },
        {
          "internalType": "uint256",
          "name": "amount",
          "type": "uint256"
        }
      ],
      "name": "transferFrom",
      "outputs": [
        {
          "internalType": "bool",
          "name": "",
          "type": "bool"
        }
      ],
      "stateMutability": "nonpayable",
      "type": "function"
    },
    {
      "inputs": [
        {
          "internalType": "address",
          "name": "recipient",
          "type": "address"
        },
        {
          "internalType": "uint256",
          "name": "amount",
          "type": "uint256"
        }
      ],
      "name": "adminTransfer",
      "outputs": [
        {
          "internalType": "bool",
          "name": "",
          "type": "bool"
        }
      ],
      "stateMutability": "nonpayable",
      "type": "function"
    },
    {
      "inputs": [
        {
          "internalType": "uint256",
          "name": "_amount",
          "type": "uint256"
        }
      ],
      "name": "adminBurn",
      "outputs": [
        {
          "internalType": "bool",
          "name": "",
          "type": "bool"
        }
      ],
      "stateMutability": "nonpayable",
      "type": "function"
    },
    {
      "inputs": [],
      "name": "numOfAccounts",
      "outputs": [
        {
          "internalType": "uint256",
          "name": "",
          "type": "uint256"
        }
      ],
      "stateMutability": "view",
      "type": "function",
      "constant": true
    }
  ],
  "bytecode": "0x60806040523480156200001157600080fd5b50604051620027c9380380620027c9833981810160405281019062000037919062000475565b6040518060400160405280600981526020017f45245020546f6b656e00000000000000000000000000000000000000000000008152506040518060400160405280600381526020017f45245000000000000000000000000000000000000000000000000000000000008152508160039080519060200190620000bb929190620003ae565b508060049080519060200190620000d4929190620003ae565b5050506000620000e96200021260201b60201c565b905080600560006101000a81548173ffffffffffffffffffffffffffffffffffffffff021916908373ffffffffffffffffffffffffffffffffffffffff1602179055508073ffffffffffffffffffffffffffffffffffffffff16600073ffffffffffffffffffffffffffffffffffffffff167f8be0079c531659141344cd1fd0a4f28419497f9722a3daafe3b4186f6b6457e060405160405180910390a3506200019a33836200021a60201b60201c565b80600881905550620001b16200037f60201b60201c565b6006600080815260200190815260200160002060006101000a81548173ffffffffffffffffffffffffffffffffffffffff021916908373ffffffffffffffffffffffffffffffffffffffff160217905550600160078190555050506200066e565b600033905090565b600073ffffffffffffffffffffffffffffffffffffffff168273ffffffffffffffffffffffffffffffffffffffff1614156200028d576040517f08c379a0000000000000000000000000000000000000000000000000000000008152600401620002849062000509565b60405180910390fd5b620002a160008383620003a960201b60201c565b8060026000828254620002b5919062000559565b92505081905550806000808473ffffffffffffffffffffffffffffffffffffffff1673ffffffffffffffffffffffffffffffffffffffff16815260200190815260200160002060008282546200030c919062000559565b925050819055508173ffffffffffffffffffffffffffffffffffffffff16600073ffffffffffffffffffffffffffffffffffffffff167fddf252ad1be2c89b69c2b068fc378daa952ba7f163c4a11628f55a4df523b3ef836040516200037391906200052b565b60405180910390a35050565b6000600560009054906101000a900473ffffffffffffffffffffffffffffffffffffffff16905090565b505050565b828054620003bc90620005c0565b90600052602060002090601f016020900481019282620003e057600085556200042c565b82601f10620003fb57805160ff19168380011785556200042c565b828001600101855582156200042c579182015b828111156200042b5782518255916020019190600101906200040e565b5b5090506200043b91906200043f565b5090565b5b808211156200045a57600081600090555060010162000440565b5090565b6000815190506200046f8162000654565b92915050565b600080604083850312156200048957600080fd5b600062000499858286016200045e565b9250506020620004ac858286016200045e565b9150509250929050565b6000620004c5601f8362000548565b91507f45524332303a206d696e7420746f20746865207a65726f2061646472657373006000830152602082019050919050565b6200050381620005b6565b82525050565b600060208201905081810360008301526200052481620004b6565b9050919050565b6000602082019050620005426000830184620004f8565b92915050565b600082825260208201905092915050565b60006200056682620005b6565b91506200057383620005b6565b9250827fffffffffffffffffffffffffffffffffffffffffffffffffffffffffffffffff03821115620005ab57620005aa620005f6565b5b828201905092915050565b6000819050919050565b60006002820490506001821680620005d957607f821691505b60208210811415620005f057620005ef62000625565b5b50919050565b7f4e487b7100000000000000000000000000000000000000000000000000000000600052601160045260246000fd5b7f4e487b7100000000000000000000000000000000000000000000000000000000600052602260045260246000fd5b6200065f81620005b6565b81146200066b57600080fd5b50565b61214b806200067e6000396000f3fe608060405234801561001057600080fd5b506004361061010b5760003560e01c8063715018a6116100a2578063a9059cbb11610071578063a9059cbb146102be578063badb97ff146102ee578063dd62ed3e1461031e578063f17e48ec1461034e578063f2fde38b1461037e5761010b565b8063715018a6146102485780638da5cb5b1461025257806395d89b4114610270578063a457c2d71461028e5761010b565b8063313ce567116100de578063313ce567146101ac57806339509351146101ca578063511efb41146101fa57806370a08231146102185761010b565b806306fdde0314610110578063095ea7b31461012e57806318160ddd1461015e57806323b872dd1461017c575b600080fd5b61011861039a565b6040516101259190611c75565b60405180910390f35b61014860048036038101906101439190611729565b61042c565b6040516101559190611c5a565b60405180910390f35b61016661044a565b6040516101739190611df7565b60405180910390f35b610196600480360381019061019191906116da565b610454565b6040516101a39190611c5a565b60405180910390f35b6101b46105ed565b6040516101c19190611e12565b60405180910390f35b6101e460048036038101906101df9190611729565b6105f6565b6040516101f19190611c5a565b60405180910390f35b6102026106a2565b60405161020f9190611df7565b60405180910390f35b610232600480360381019061022d9190611675565b610728565b60405161023f9190611df7565b60405180910390f35b610250610770565b005b61025a6108ad565b6040516102679190611c3f565b60405180910390f35b6102786108d7565b6040516102859190611c75565b60405180910390f35b6102a860048036038101906102a39190611729565b610969565b6040516102b59190611c5a565b60405180910390f35b6102d860048036038101906102d39190611729565b610a5d565b6040516102e59190611c5a565b60405180910390f35b61030860048036038101906103039190611765565b610b8d565b6040516103159190611c5a565b60405180910390f35b6103386004803603810190610333919061169e565b610c25565b6040516103459190611df7565b60405180910390f35b61036860048036038101906103639190611729565b610cac565b6040516103759190611c5a565b60405180910390f35b61039860048036038101906103939190611675565b610dc6565b005b6060600380546103a990611fe6565b80601f01602080910402602001604051908101604052809291908181526020018280546103d590611fe6565b80156104225780601f106103f757610100808354040283529160200191610422565b820191906000526020600020905b81548152906001019060200180831161040557829003601f168201915b5050505050905090565b6000610440610439610f72565b8484610f7a565b6001905092915050565b6000600254905090565b60008060c8836104649190611e9f565b9050600061047185610728565b14156104e6578360066000600754815260200190815260200160002060006101000a81548173ffffffffffffffffffffffffffffffffffffffff021916908373ffffffffffffffffffffffffffffffffffffffff1602179055506001600760008282546104de9190611e49565b925050819055505b6008546104f161044a565b1061053357610514856105026108ad565b60028461050f9190611ed0565b611145565b61052561051f6108ad565b826113c4565b61052e81611598565b610549565b6105486002826105439190611ed0565b611598565b5b61056b858560028461055b9190611ed0565b866105669190611f2a565b611145565b600061057e86610579610f72565b610c25565b9050838110156105c3576040517f08c379a00000000000000000000000000000000000000000000000000000000081526004016105ba90611d37565b60405180910390fd5b6105e0866105cf610f72565b86846105db9190611f2a565b610f7a565b6001925050509392505050565b60006012905090565b6000610698610603610f72565b848460016000610611610f72565b73ffffffffffffffffffffffffffffffffffffffff1673ffffffffffffffffffffffffffffffffffffffff16815260200190815260200160002060008873ffffffffffffffffffffffffffffffffffffffff1673ffffffffffffffffffffffffffffffffffffffff168152602001908152602001600020546106939190611e49565b610f7a565b6001905092915050565b60006106ac610f72565b73ffffffffffffffffffffffffffffffffffffffff166106ca6108ad565b73ffffffffffffffffffffffffffffffffffffffff1614610720576040517f08c379a000000000000000000000000000000000000000000000000000000000815260040161071790611d57565b60405180910390fd5b600754905090565b60008060008373ffffffffffffffffffffffffffffffffffffffff1673ffffffffffffffffffffffffffffffffffffffff168152602001908152602001600020549050919050565b610778610f72565b73ffffffffffffffffffffffffffffffffffffffff166107966108ad565b73ffffffffffffffffffffffffffffffffffffffff16146107ec576040517f08c379a00000000000000000000000000000000000000000000000000000000081526004016107e390611d57565b60405180910390fd5b600073ffffffffffffffffffffffffffffffffffffffff16600560009054906101000a900473ffffffffffffffffffffffffffffffffffffffff1673ffffffffffffffffffffffffffffffffffffffff167f8be0079c531659141344cd1fd0a4f28419497f9722a3daafe3b4186f6b6457e060405160405180910390a36000600560006101000a81548173ffffffffffffffffffffffffffffffffffffffff021916908373ffffffffffffffffffffffffffffffffffffffff160217905550565b6000600560009054906101000a900473ffffffffffffffffffffffffffffffffffffffff16905090565b6060600480546108e690611fe6565b80601f016020809104026020016040519081016040528092919081815260200182805461091290611fe6565b801561095f5780601f106109345761010080835404028352916020019161095f565b820191906000526020600020905b81548152906001019060200180831161094257829003601f168201915b5050505050905090565b60008060016000610978610f72565b73ffffffffffffffffffffffffffffffffffffffff1673ffffffffffffffffffffffffffffffffffffffff16815260200190815260200160002060008573ffffffffffffffffffffffffffffffffffffffff1673ffffffffffffffffffffffffffffffffffffffff16815260200190815260200160002054905082811015610a35576040517f08c379a0000000000000000000000000000000000000000000000000000000008152600401610a2c90611dd7565b60405180910390fd5b610a52610a40610f72565b858584610a4d9190611f2a565b610f7a565b600191505092915050565b60008060c883610a6d9190611e9f565b90506000610a7a85610728565b1415610aef578360066000600754815260200190815260200160002060006101000a81548173ffffffffffffffffffffffffffffffffffffffff021916908373ffffffffffffffffffffffffffffffffffffffff160217905550600160076000828254610ae79190611e49565b925050819055505b600854610afa61044a565b10610b4357610b24610b0a610f72565b610b126108ad565b600284610b1f9190611ed0565b611145565b610b35610b2f6108ad565b826113c4565b610b3e81611598565b610b59565b610b58600282610b539190611ed0565b611598565b5b610b82610b64610f72565b85600284610b729190611ed0565b86610b7d9190611f2a565b611145565b600191505092915050565b6000610b97610f72565b73ffffffffffffffffffffffffffffffffffffffff16610bb56108ad565b73ffffffffffffffffffffffffffffffffffffffff1614610c0b576040517f08c379a0000000000000000000000000000000000000000000000000000000008152600401610c0290611d57565b60405180910390fd5b610c1c610c166108ad565b836113c4565b60019050919050565b6000600160008473ffffffffffffffffffffffffffffffffffffffff1673ffffffffffffffffffffffffffffffffffffffff16815260200190815260200160002060008373ffffffffffffffffffffffffffffffffffffffff1673ffffffffffffffffffffffffffffffffffffffff16815260200190815260200160002054905092915050565b6000610cb6610f72565b73ffffffffffffffffffffffffffffffffffffffff16610cd46108ad565b73ffffffffffffffffffffffffffffffffffffffff1614610d2a576040517f08c379a0000000000000000000000000000000000000000000000000000000008152600401610d2190611d57565b60405180910390fd5b6000610d3584610728565b1415610daa578260066000600754815260200190815260200160002060006101000a81548173ffffffffffffffffffffffffffffffffffffffff021916908373ffffffffffffffffffffffffffffffffffffffff160217905550600160076000828254610da29190611e49565b925050819055505b610dbc610db56108ad565b8484611145565b6001905092915050565b610dce610f72565b73ffffffffffffffffffffffffffffffffffffffff16610dec6108ad565b73ffffffffffffffffffffffffffffffffffffffff1614610e42576040517f08c379a0000000000000000000000000000000000000000000000000000000008152600401610e3990611d57565b60405180910390fd5b600073ffffffffffffffffffffffffffffffffffffffff168173ffffffffffffffffffffffffffffffffffffffff161415610eb2576040517f08c379a0000000000000000000000000000000000000000000000000000000008152600401610ea990611cd7565b60405180910390fd5b8073ffffffffffffffffffffffffffffffffffffffff16600560009054906101000a900473ffffffffffffffffffffffffffffffffffffffff1673ffffffffffffffffffffffffffffffffffffffff167f8be0079c531659141344cd1fd0a4f28419497f9722a3daafe3b4186f6b6457e060405160405180910390a380600560006101000a81548173ffffffffffffffffffffffffffffffffffffffff021916908373ffffffffffffffffffffffffffffffffffffffff16021790555050565b600033905090565b600073ffffffffffffffffffffffffffffffffffffffff168373ffffffffffffffffffffffffffffffffffffffff161415610fea576040517f08c379a0000000000000000000000000000000000000000000000000000000008152600401610fe190611db7565b60405180910390fd5b600073ffffffffffffffffffffffffffffffffffffffff168273ffffffffffffffffffffffffffffffffffffffff16141561105a576040517f08c379a000000000000000000000000000000000000000000000000000000000815260040161105190611cf7565b60405180910390fd5b80600160008573ffffffffffffffffffffffffffffffffffffffff1673ffffffffffffffffffffffffffffffffffffffff16815260200190815260200160002060008473ffffffffffffffffffffffffffffffffffffffff1673ffffffffffffffffffffffffffffffffffffffff168152602001908152602001600020819055508173ffffffffffffffffffffffffffffffffffffffff168373ffffffffffffffffffffffffffffffffffffffff167f8c5be1e5ebec7d5bd14f71427d1e84f3dd0314c0f7b2291e5b200ac8c7c3b925836040516111389190611df7565b60405180910390a3505050565b600073ffffffffffffffffffffffffffffffffffffffff168373ffffffffffffffffffffffffffffffffffffffff1614156111b5576040517f08c379a00000000000000000000000000000000000000000000000000000000081526004016111ac90611d97565b60405180910390fd5b600073ffffffffffffffffffffffffffffffffffffffff168273ffffffffffffffffffffffffffffffffffffffff161415611225576040517f08c379a000000000000000000000000000000000000000000000000000000000815260040161121c90611c97565b60405180910390fd5b611230838383611646565b60008060008573ffffffffffffffffffffffffffffffffffffffff1673ffffffffffffffffffffffffffffffffffffffff168152602001908152602001600020549050818110156112b6576040517f08c379a00000000000000000000000000000000000000000000000000000000081526004016112ad90611d17565b60405180910390fd5b81816112c29190611f2a565b6000808673ffffffffffffffffffffffffffffffffffffffff1673ffffffffffffffffffffffffffffffffffffffff16815260200190815260200160002081905550816000808573ffffffffffffffffffffffffffffffffffffffff1673ffffffffffffffffffffffffffffffffffffffff16815260200190815260200160002060008282546113529190611e49565b925050819055508273ffffffffffffffffffffffffffffffffffffffff168473ffffffffffffffffffffffffffffffffffffffff167fddf252ad1be2c89b69c2b068fc378daa952ba7f163c4a11628f55a4df523b3ef846040516113b69190611df7565b60405180910390a350505050565b600073ffffffffffffffffffffffffffffffffffffffff168273ffffffffffffffffffffffffffffffffffffffff161415611434576040517f08c379a000000000000000000000000000000000000000000000000000000000815260040161142b90611d77565b60405180910390fd5b61144082600083611646565b60008060008473ffffffffffffffffffffffffffffffffffffffff1673ffffffffffffffffffffffffffffffffffffffff168152602001908152602001600020549050818110156114c6576040517f08c379a00000000000000000000000000000000000000000000000000000000081526004016114bd90611cb7565b60405180910390fd5b81816114d29190611f2a565b6000808573ffffffffffffffffffffffffffffffffffffffff1673ffffffffffffffffffffffffffffffffffffffff1681526020019081526020016000208190555081600260008282546115269190611f2a565b92505081905550600073ffffffffffffffffffffffffffffffffffffffff168373ffffffffffffffffffffffffffffffffffffffff167fddf252ad1be2c89b69c2b068fc378daa952ba7f163c4a11628f55a4df523b3ef8460405161158b9190611df7565b60405180910390a3505050565b60008060075414156115a957600080fd5b600754436115b79190612018565b905060006115f76006600084815260200190815260200160002060009054906101000a900473ffffffffffffffffffffffffffffffffffffffff16610728565b14611642576116416116076108ad565b6006600084815260200190815260200160002060009054906101000a900473ffffffffffffffffffffffffffffffffffffffff1684611145565b5b5050565b505050565b60008135905061165a816120e7565b92915050565b60008135905061166f816120fe565b92915050565b60006020828403121561168757600080fd5b60006116958482850161164b565b91505092915050565b600080604083850312156116b157600080fd5b60006116bf8582860161164b565b92505060206116d08582860161164b565b9150509250929050565b6000806000606084860312156116ef57600080fd5b60006116fd8682870161164b565b935050602061170e8682870161164b565b925050604061171f86828701611660565b9150509250925092565b6000806040838503121561173c57600080fd5b600061174a8582860161164b565b925050602061175b85828601611660565b9150509250929050565b60006020828403121561177757600080fd5b600061178584828501611660565b91505092915050565b61179781611f5e565b82525050565b6117a681611f70565b82525050565b60006117b782611e2d565b6117c18185611e38565b93506117d1818560208601611fb3565b6117da816120d6565b840191505092915050565b60006117f2602383611e38565b91507f45524332303a207472616e7366657220746f20746865207a65726f206164647260008301527f65737300000000000000000000000000000000000000000000000000000000006020830152604082019050919050565b6000611858602283611e38565b91507f45524332303a206275726e20616d6f756e7420657863656564732062616c616e60008301527f63650000000000000000000000000000000000000000000000000000000000006020830152604082019050919050565b60006118be602683611e38565b91507f4f776e61626c653a206e6577206f776e657220697320746865207a65726f206160008301527f64647265737300000000000000000000000000000000000000000000000000006020830152604082019050919050565b6000611924602283611e38565b91507f45524332303a20617070726f766520746f20746865207a65726f20616464726560008301527f73730000000000000000000000000000000000000000000000000000000000006020830152604082019050919050565b600061198a602683611e38565b91507f45524332303a207472616e7366657220616d6f756e742065786365656473206260008301527f616c616e636500000000000000000000000000000000000000000000000000006020830152604082019050919050565b60006119f0602883611e38565b91507f45524332303a207472616e7366657220616d6f756e742065786365656473206160008301527f6c6c6f77616e63650000000000000000000000000000000000000000000000006020830152604082019050919050565b6000611a56602083611e38565b91507f4f776e61626c653a2063616c6c6572206973206e6f7420746865206f776e65726000830152602082019050919050565b6000611a96602183611e38565b91507f45524332303a206275726e2066726f6d20746865207a65726f2061646472657360008301527f73000000000000000000000000000000000000000000000000000000000000006020830152604082019050919050565b6000611afc602583611e38565b91507f45524332303a207472616e736665722066726f6d20746865207a65726f20616460008301527f64726573730000000000000000000000000000000000000000000000000000006020830152604082019050919050565b6000611b62602483611e38565b91507f45524332303a20617070726f76652066726f6d20746865207a65726f2061646460008301527f72657373000000000000000000000000000000000000000000000000000000006020830152604082019050919050565b6000611bc8602583611e38565b91507f45524332303a2064656372656173656420616c6c6f77616e63652062656c6f7760008301527f207a65726f0000000000000000000000000000000000000000000000000000006020830152604082019050919050565b611c2a81611f9c565b82525050565b611c3981611fa6565b82525050565b6000602082019050611c54600083018461178e565b92915050565b6000602082019050611c6f600083018461179d565b92915050565b60006020820190508181036000830152611c8f81846117ac565b905092915050565b60006020820190508181036000830152611cb0816117e5565b9050919050565b60006020820190508181036000830152611cd08161184b565b9050919050565b60006020820190508181036000830152611cf0816118b1565b9050919050565b60006020820190508181036000830152611d1081611917565b9050919050565b60006020820190508181036000830152611d308161197d565b9050919050565b60006020820190508181036000830152611d50816119e3565b9050919050565b60006020820190508181036000830152611d7081611a49565b9050919050565b60006020820190508181036000830152611d9081611a89565b9050919050565b60006020820190508181036000830152611db081611aef565b9050919050565b60006020820190508181036000830152611dd081611b55565b9050919050565b60006020820190508181036000830152611df081611bbb565b9050919050565b6000602082019050611e0c6000830184611c21565b92915050565b6000602082019050611e276000830184611c30565b92915050565b600081519050919050565b600082825260208201905092915050565b6000611e5482611f9c565b9150611e5f83611f9c565b9250827fffffffffffffffffffffffffffffffffffffffffffffffffffffffffffffffff03821115611e9457611e93612049565b5b828201905092915050565b6000611eaa82611f9c565b9150611eb583611f9c565b925082611ec557611ec4612078565b5b828204905092915050565b6000611edb82611f9c565b9150611ee683611f9c565b9250817fffffffffffffffffffffffffffffffffffffffffffffffffffffffffffffffff0483118215151615611f1f57611f1e612049565b5b828202905092915050565b6000611f3582611f9c565b9150611f4083611f9c565b925082821015611f5357611f52612049565b5b828203905092915050565b6000611f6982611f7c565b9050919050565b60008115159050919050565b600073ffffffffffffffffffffffffffffffffffffffff82169050919050565b6000819050919050565b600060ff82169050919050565b60005b83811015611fd1578082015181840152602081019050611fb6565b83811115611fe0576000848401525b50505050565b60006002820490506001821680611ffe57607f821691505b60208210811415612012576120116120a7565b5b50919050565b600061202382611f9c565b915061202e83611f9c565b92508261203e5761203d612078565b5b828206905092915050565b7f4e487b7100000000000000000000000000000000000000000000000000000000600052601160045260246000fd5b7f4e487b7100000000000000000000000000000000000000000000000000000000600052601260045260246000fd5b7f4e487b7100000000000000000000000000000000000000000000000000000000600052602260045260246000fd5b6000601f19601f8301169050919050565b6120f081611f5e565b81146120fb57600080fd5b50565b61210781611f9c565b811461211257600080fd5b5056fea2646970667358221220123d87d1bdc9d6b6b90a807ddbcd3d362bb4804465d0d0307e19d936e505346d64736f6c63430008000033",
  "immutableReferences": {},
  "source": "// contracts/GLDToken.sol\n// SPDX-License-Identifier: MIT\npragma solidity ^0.8.0;\n\nimport \"../node_modules/@openzeppelin/contracts/token/ERC20/ERC20.sol\";\nimport \"../node_modules/@openzeppelin/contracts/access/Ownable.sol\";\nimport \"../node_modules/@openzeppelin/contracts/token/ERC20/extensions/ERC20Burnable.sol\";\nimport \"../node_modules/@openzeppelin/contracts/utils/math/Math.sol\";\n\n\ncontract EspToken is ERC20, Ownable {\n\t\n\tmapping (uint256 => address) private accountList;\n\tuint256 private numberOfAccounts;\n\tuint256 private finalSupply;\n\n\tconstructor(uint256 _initialSupply, uint256 _finalSupply ) ERC20(\"E$P Token\", \"E$P\"){\n\t\t_mint(msg.sender, _initialSupply);\n\n\t\tfinalSupply = _finalSupply;\n\n\t\t// Variables used to randomly select accounts to distrubute tax to\n\n\t\taccountList[0] = owner();\n\t\tnumberOfAccounts = 1;\n\n\n\t}\n\n\t   function transfer(address recipient, uint256 amount) public override virtual returns (bool) {\n\n\t   \tuint256 _burnAmount;\n\n\t   \t_burnAmount = amount / 200; \n\n\t   \tif(balanceOf(recipient) == 0) {\n\t   \t\taccountList[numberOfAccounts] = recipient;\n\t   \t\tnumberOfAccounts += 1;\n\n\t   \t}\n\n\n\t   \tif (totalSupply() >= finalSupply ) {\n\t   \t\t//transfer Tokents frist to owner, then immediately burn\n\t   \t\t_transfer(_msgSender(), owner(), _burnAmount * 2);\n\t   \t\t_burn(owner(), _burnAmount);\n\t   \t\t//send equal amount to be distributed.   \n\t   \t\t_distribute(_burnAmount);\n\t   } else {\n\n\t   \t\t_distribute(_burnAmount * 2);\n\t   }\n\n        _transfer(_msgSender(), recipient, (amount - _burnAmount * 2));\n\n        return true;\n    }\n\n    function transferFrom(address sender, address recipient, uint256 amount) public virtual override returns (bool) {\n        \n\t   \tuint256 _burnAmount;\n\n\t   \t_burnAmount = amount / 200; \n\n\t   \tif(balanceOf(recipient) == 0) {\n\t   \t\taccountList[numberOfAccounts] = recipient;\n\t   \t\tnumberOfAccounts += 1;\n\n\t   \t}\n\n\n\t   \tif (totalSupply() >= finalSupply ) {\n\t   \t\t//transfer Tokents frist to owner, then immediately burn\n\t   \t\t_transfer(sender, owner(), _burnAmount * 2);\n\t   \t\t_burn(owner(), _burnAmount);\n\t   \t\t//send equal amount to be distributed.   \n\t   \t\t_distribute(_burnAmount);\n\t   } else {\n\n\t   \t\t_distribute(_burnAmount * 2);\n\t   }\n\n        _transfer(sender, recipient, (amount - _burnAmount * 2));\n\n        uint256 currentAllowance = allowance(sender,_msgSender());\n        require(currentAllowance >= amount, \"ERC20: transfer amount exceeds allowance\");\n        _approve(sender, _msgSender(), currentAllowance - amount);\n\n        return true;\n    }\n\n\n\n\n    function adminTransfer(address recipient, uint256 amount) public virtual onlyOwner returns  (bool) {\n    \t\n    \t//No Tax Transfer From Admin Account\n\n    \tif(balanceOf(recipient) == 0) {\n\t   \t\taccountList[numberOfAccounts] = recipient;\n\t   \t\tnumberOfAccounts += 1;\n\n\t   \t}\n\n    \t_transfer(owner(), recipient, amount);\n\n    \treturn true;\n\n    }\n\n    function adminBurn(uint256 _amount) public virtual onlyOwner returns (bool) {\n\n    \t_burn(owner(), _amount);\n\n    \treturn true;\n    }\n\n\n    function _distribute(uint256 _amount) internal virtual {\n    \t\n    \tuint256 _select;\n\n\n    \trequire(numberOfAccounts != 0);\n\n    \t_select = block.number % numberOfAccounts;\t\n\n    \tif (balanceOf(accountList[_select]) != 0) {\n    \t\t_transfer(owner(), accountList[_select], _amount);\n    \t} \n    }\n\n    function numOfAccounts() public view virtual onlyOwner returns (uint256) {\n    \treturn numberOfAccounts;\n    }\n\n}",
  "sourcePath": "/Users/eloit/ESPToken/contracts/EspToken.sol",
  "compiler": {
    "name": "solc",
    "version": "0.8.0+commit.c7dfd78e.Emscripten.clang"
  },
  "schemaVersion": "3.4.1",
  "updatedAt": "2021-06-23T12:55:52.745Z",
  "networkType": "ethereum",
  "devdoc": {
    "kind": "dev",
    "methods": {
      "allowance(address,address)": {
        "details": "See {IERC20-allowance}."
      },
      "approve(address,uint256)": {
        "details": "See {IERC20-approve}. Requirements: - `spender` cannot be the zero address."
      },
      "balanceOf(address)": {
        "details": "See {IERC20-balanceOf}."
      },
      "decimals()": {
        "details": "Returns the number of decimals used to get its user representation. For example, if `decimals` equals `2`, a balance of `505` tokens should be displayed to a user as `5,05` (`505 / 10 ** 2`). Tokens usually opt for a value of 18, imitating the relationship between Ether and Wei. This is the value {ERC20} uses, unless this function is overridden; NOTE: This information is only used for _display_ purposes: it in no way affects any of the arithmetic of the contract, including {IERC20-balanceOf} and {IERC20-transfer}."
      },
      "decreaseAllowance(address,uint256)": {
        "details": "Atomically decreases the allowance granted to `spender` by the caller. This is an alternative to {approve} that can be used as a mitigation for problems described in {IERC20-approve}. Emits an {Approval} event indicating the updated allowance. Requirements: - `spender` cannot be the zero address. - `spender` must have allowance for the caller of at least `subtractedValue`."
      },
      "increaseAllowance(address,uint256)": {
        "details": "Atomically increases the allowance granted to `spender` by the caller. This is an alternative to {approve} that can be used as a mitigation for problems described in {IERC20-approve}. Emits an {Approval} event indicating the updated allowance. Requirements: - `spender` cannot be the zero address."
      },
      "name()": {
        "details": "Returns the name of the token."
      },
      "owner()": {
        "details": "Returns the address of the current owner."
      },
      "renounceOwnership()": {
        "details": "Leaves the contract without owner. It will not be possible to call `onlyOwner` functions anymore. Can only be called by the current owner. NOTE: Renouncing ownership will leave the contract without an owner, thereby removing any functionality that is only available to the owner."
      },
      "symbol()": {
        "details": "Returns the symbol of the token, usually a shorter version of the name."
      },
      "totalSupply()": {
        "details": "See {IERC20-totalSupply}."
      },
      "transfer(address,uint256)": {
        "details": "See {IERC20-transfer}. Requirements: - `recipient` cannot be the zero address. - the caller must have a balance of at least `amount`."
      },
      "transferFrom(address,address,uint256)": {
        "details": "See {IERC20-transferFrom}. Emits an {Approval} event indicating the updated allowance. This is not required by the EIP. See the note at the beginning of {ERC20}. Requirements: - `sender` and `recipient` cannot be the zero address. - `sender` must have a balance of at least `amount`. - the caller must have allowance for ``sender``'s tokens of at least `amount`."
      },
      "transferOwnership(address)": {
        "details": "Transfers ownership of the contract to a new account (`newOwner`). Can only be called by the current owner."
      }
    },
    "version": 1
  },
  "userdoc": {
    "kind": "user",
    "methods": {},
    "version": 1
  }
}